:020000040800F2
:1000000000280020DD1900086D1900087319000888
:10001000791900087F190008851900080000000000
:100020000000000000000000000000008B19000824
:100030009719000800000000A3190008AF19000874
:10004000251A0008251A0008251A0008251A000894
:10005000251A0008251A0008251A0008251A000884
:10006000251A0008251A0008251A0008251A000874
:10007000251A0008251A0008251A0008251A000864
:10008000251A0008251A0008251A0008251A000854
:10009000251A0008251A0008251A0008251A000844
:1000A000251A0008251A0008251A0008251A000834
:1000B000BD190008251A000800000000251A0008D4
:1000C000251A00080000000000000000251A0008A2
:1000D00000000000251A0008251A00080000000092
:1000E000251A0008251A0008251A0008000000003B
:1000F0000000000000000000000000000000000000
:0C01000000000000000000005FF808F1A3
:10010C0010B5054C237833B9044B13B10448AFF345
:10011C0000800123237010BD580000200000000057
:10012C008030000808B5034B1BB103490348AFF3FB
:10013C00008008BD000000005C000020803000083A
:10014C0080B400AF064B1B68012B04D1044B00227A
:10015C001A60012300E000231846BD4680BC70479E
:10016C007400002080B400AF064B1B68012B04D137
:10017C00044B00221A60012300E000231846BD4600
:10018C0080BC70477800002080B400AF064B1B6821
:10019C00012B04D1044B00221A60012300E0002340
:1001AC001846BD4680BC70477C00002080B483B0EC
:1001BC0000AF78607B68002B03D10B4B01221A60D7
:1001CC000CE07B68012B03D1084B01221A6005E07F
:1001DC007B68022B02D1064B01221A6000BF0C3740
:1001EC00BD4680BC704700BF740000207800002022
:1001FC007C00002080B582B000AF00237B608FE0D4
:10020C004C4A7B6852F823204B497B6841F82320E9
:10021C004A4A7B6852F8232046497B6841F82320E0
:10022C007B68002B0AD10221454801F0E3FE03460E
:10023C001946424A7B6842F823101AE07B68012B6E
:10024C000AD104213E4801F0D5FE034619463B4A2B
:10025C007B6842F823100CE07B68022B09D1082143
:10026C00374801F0C7FE03461946344A7B6842F80A
:10027C002310304A7B6852F8232030497B6851F8B0
:10028C0023309A4249D12B4A7B6852F823202A49C1
:10029C007B6851F823309A423FD1274A7B6852F849
:1002AC00232028497B6851F823309A4217D0224AE0
:1002BC007B6852F8232023497B6841F823201E4A8F
:1002CC007B6852F82330002B27D17868FFF76EFF3C
:1002DC001D4A7B684FF4967142F823101DE01A4AB0
:1002EC007B6852F823305A1E17497B6841F823204B
:1002FC00154A7B6852F82330002B0ED10E4A7B68CE
:10030C0052F82330002B02D17868FFF74FFF0E4ACA
:10031C007B684FF4967142F823107B6801337B6045
:10032C007B68022B7FF76CAF00BF00BF0837BD4660
:10033C0080BD00BF0C000020180000200000002031
:10034C00000801402400002030000020B0B500AFB0
:10035C00B64B1B68282B00F2058501A252F823F03E
:10036C00110400088F0400089F070008A109000869
:10037C00990B0008710D0008710D0008710D000833
:10038C00710D0008710D0008710D0008710D000849
:10039C00710D0008710D0008710D0008710D000839
:1003AC00710D0008710D0008710D0008710D000829
:1003BC00AD080008710D0008710D0008710D0008E2
:1003CC00710D0008710D0008710D0008710D000809
:1003DC00710D0008710D0008850A0008710D0008E8
:1003EC00710D0008710D0008710D0008710D0008E9
:1003FC00710D0008710D0008710D0008710D0008D9
:10040C007D0C00084FF4FA7001F0EEF94FF47A709D
:10041C0001F004FA864B1B68864A1360864B1B68F6
:10042C00864A1360864B1B68864A1360864B0022F3
:10043C001A60864B00221A6001221021844801F0B8
:10044C00F0FD01224021824801F0EBFD0122202128
:10045C007F4801F0E6FD012280217D4801F0E1FD9D
:10046C0001224FF400717A4801F0DBFD01224FF4B8
:10047C008071774801F0D5FD6C4B01221A6000F0B9
:10048C0080BC744B1B68744A82FB03129210DB17FE
:10049C00D41A704B1A68704B83FB02139910D31744
:1004AC00C91A0B469B000B445B00D11A6B4B1B68A3
:1004BC00694A82FB03029210DB17D51A674B1A6844
:1004CC00654B83FB02039810D317C01A03469B009D
:1004DC0003445B00D01A03462A46204600F0BAFFBC
:1004EC005F4B1B68012B40F02081574B1B6801337D
:1004FC00554A1360554B1B680133544A1360524BD9
:10050C001A684B4B1B689A4216DC0022102150488B
:10051C0001F087FD012220214D4801F082FD0122CE
:10052C0040214B4801F07DFD414B1A68464B1B683E
:10053C00D31A484A13604AE03D4B1A68404B1B687B
:10054C001A44414B1B689A4219DB01221021404886
:10055C0001F067FD012220213D4801F062FD0022DF
:10056C0040213B4801F05DFD314B1A68344B1B6850
:10057C001A44354B1B68D31A364A136027E02C4BB0
:10058C001A682D4B1B681A442D4B1B681A442E4BB2
:10059C001B689A421BDB012210212D4801F041FD02
:1005AC00002220212A4801F03CFD0122402128484C
:1005BC0001F037FD1E4B1A681F4B1B681A44204B69
:1005CC001B681A44204B1B68D31A224A1360184B21
:1005DC001A68194B1B681A44194B1B681A441A4B9E
:1005EC001B689A4203DC184B4FF0FF321A60174B12
:1005FC001A68134B1B689A4234DC01228021144880
:10060C0001F00FFD01224FF48071114801F009FD3A
:10061C0000224FF400710E4801F003FD084B1A68DC
:10062C000A4B1B68D31A0D4A13606AE09C00002029
:10063C003C00002088000020440000208C0000209A
:10064C00400000209000002080000020840000204A
:10065C000008014094000020676666669800002040
:10066C0004010020834B1A68834B1B681A44834B8C
:10067C001B689A421BDB01228021814801F0D1FCCE
:10068C0000224FF480717E4801F0CBFC01224FF424
:10069C0000717B4801F0C5FC764B1A68764B1B68E1
:1006AC001A44764B1B68D31A764A136029E0764BB2
:1006BC001A68714B1B681A446E4B1B681A446F4BBB
:1006CC001B689A421DDB002280216D4801F0A9FCB9
:1006DC0001224FF480716A4801F0A3FC01224FF40F
:1006EC000071674801F09DFC674B1A68624B1B68F0
:1006FC001A44604B1B681A44604B1B68D31A614A3E
:10070C001360614B1A685C4B1B681A44594B1B688D
:10071C001A445A4B1B689A4203DC584B4FF0FF3279
:10072C001A604FF47A7001F05FF8FFF709FD034689
:10073C00012B40F019834FF4FA7001F06FF8534B12
:10074C0000221A604D4B00221A60514B02221A6093
:10075C00012210214A4801F064FC01228021484802
:10076C0001F05FFC01222021454801F05AFC0122D6
:10077C004FF48071424801F054FC01224021404862
:10078C0001F04FFC01224FF400713D4801F049FC8F
:10079C00EAE2404B1B68404A82FB03129210DB17C3
:1007AC00D01A3C4B1A683C4B83FB02139910D3179D
:1007BC00C91A0B469B000B445B00D11A0B46024630
:1007CC000221002000F046FE344B1B68012B0BD19C
:1007DC0010212B4801F03DFC8021294801F039FC07
:1007EC004FF4FA7001F01AF8FFF7AAFC0346012B3C
:1007FC0026D14FF4FA7001F011F8254B03221A6040
:10080C00012210211E4801F00CFC012280211C4801
:10081C0001F007FC01222021194801F002FC012201
:10082C004FF48071164801F0FCFB01224021144862
:10083C0001F0F7FB01224FF40071114801F0F1FBBC
:10084C00FFF790FC0346012B40F090824FF4FA70B6
:10085C0000F0E4FF0F4B1B6801330E4A13600D4B85
:10086C001B68632B02DD0B4B00221A60084B142211
:10087C001A607BE24000002044000020840000202D
:10088C0000080140980000203C000020800000205F
:10089C009C00002088000020676666660C01002022
:1008AC00B34B1B68B34A82FB03129210DB17D01AAE
:1008BC00AF4B1A68AF4B83FB02139910D317C91AAD
:1008CC000B469B000B445B00D11A0B4602460221DF
:1008DC00002000F0BFFDA84B1B68012B0BD1102191
:1008EC00A64801F0B6FB8021A44801F0B2FB4FF4FE
:1008FC00FA7000F093FFFFF723FC0346012B26D17F
:10090C004FF4FA7000F08AFF9D4B03221A6001220B
:10091C0010219A4801F085FB01228021974801F0B3
:10092C0080FB01222021954801F07BFB01224FF432
:10093C008071924801F075FB012240218F4801F033
:10094C0070FB01224FF400718C4801F06AFBFFF739
:10095C0009FC0346012B0FD14FF4FA7000F05EFF37
:10096C00834B1B680133824A1360814B1B68632BDA
:10097C0002DD7F4B00221A60FFF706FC0346012BB9
:10098C0040F0F6817A4B1B687E4A13607C4B022246
:10099C001A60EDE17C4B1B68764A82FB03129210C5
:1009AC00DB17D01A784B1A68724B83FB0213991021
:1009BC00D317C91A0B469B000B445B00D11A0B468C
:1009CC0002460321002000F045FD6B4B1B68012BF8
:1009DC000CD12021694801F03CFB4FF48071674831
:1009EC0001F037FB4FF4FA7000F018FFFFF7A8FB8B
:1009FC000346012B26D14FF4FA7000F00FFF604B29
:100A0C0004221A60012210215C4801F00AFB012229
:100A1C0080215A4801F005FB01222021574801F0A2
:100A2C0000FB01224FF48071544801F0FAFA0122C4
:100A3C004021524801F0F5FA01224FF400714F4861
:100A4C0001F0EFFAFFF78EFB0346012B40F0928189
:100A5C004FF4FA7000F0E2FE4B4B1B6801334A4A2C
:100A6C001360494B1B68632B02DD474B00221A6055
:100A7C00434B1E221A607DE1434B1B683D4A82FBAF
:100A8C0003129210DB17D01A3F4B1A68394B83FBB9
:100A9C0002139910D317C91A0B469B000B445B0029
:100AAC00D11A0B4602460321002000F0D3FC324B36
:100ABC001B68012B0CD12021304801F0CAFA4FF4ED
:100ACC0080712E4801F0C5FA4FF4FA7000F0A6FEC2
:100ADC00FFF736FB0346012B26D14FF4FA7000F0DA
:100AEC009DFE274B04221A6001221021234801F09D
:100AFC0098FA01228021214801F093FA0122202149
:100B0C001E4801F08EFA01224FF480711B4801F04F
:100B1C0088FA01224021194801F083FA01224FF48E
:100B2C000071164801F07DFAFFF71CFB0346012B00
:100B3C000FD14FF4FA7000F071FE134B1B680133A8
:100B4C00114A1360104B1B68632B02DD0E4B002205
:100B5C001A60FFF719FB0346012B40F00D810A4B7D
:100B6C001B68094A1360064B03221A6004E100BF9C
:100B7C0088000020676666660C01002000080140B2
:100B8C009C0000203C0000208C0000207E4B1B6849
:100B9C007E4A82FB03129210DB17D01A7A4B1A682A
:100BAC007A4B83FB02139910D317C91A0B469B007F
:100BBC000B445B00D11A0B4602460421002000F0C6
:100BCC0049FC734B1B68012B0CD14021714801F07F
:100BDC0040FA4FF400716F4801F03BFA4FF4FA7091
:100BEC0000F01CFEFFF7ACFA0346012B26D14FF4A4
:100BFC00FA7000F013FE684B00221A6001221021DB
:100C0C00644801F00EFA01228021624801F009FAD1
:100C1C00012220215F4801F004FA01224FF4807177
:100C2C005C4801F0FEF9012240215A4801F0F9F923
:100C3C0001224FF40071574801F0F3F9FFF792FAD3
:100C4C000346012B40F09A804FF4FA7000F0E6FD59
:100C5C004D4B1B6801334C4A13604B4B1B68632B89
:100C6C0002DD494B00221A604B4B28221A6085E0AA
:100C7C00454B1B68454A82FB03129210DB17D01AB6
:100C8C00414B1A68414B83FB02139910D317C91AB5
:100C9C000B469B000B445B00D11A0B460246042109
:100CAC00002000F0D7FB3A4B1B68012B0CD14021E4
:100CBC00384801F0CEF94FF40071364801F0C9F90B
:100CCC004FF4FA7000F0AAFDFFF73AFA0346012B35
:100CDC0026D14FF4FA7000F0A1FD2F4B00221A60C0
:100CEC00012210212B4801F09CF901228021294876
:100CFC0001F097F901222021264801F092F90122F6
:100D0C004FF48071234801F08CF9012240212148D5
:100D1C0001F087F901224FF400711E4801F081F9AE
:100D2C00FFF720FA0346012B0FD14FF4FA7000F0B5
:100D3C0075FD154B1B680133134A1360124B1B686E
:100D4C00632B02DD104B00221A60FFF71DFA0346DD
:100D5C00012B15D10C4B1B680B4A13600E4B042254
:100D6C001A600DE000BF0CE000BF0AE000BF08E015
:100D7C0000BF06E000BF04E000BF02E000BF00E0DF
:100D8C0000BF00BFB0BD00BF900000206766666664
:100D9C000C010020000801409C00002080B582B0AE
:100DAC0000AF78607B68092B00F2808101A252F8B9
:100DBC0023F000BFE90D0008310E0008790E000881
:100DCC00C10E0008090F0008510F0008990F000808
:100DDC00E10F000829100008711000080022012101
:100DEC00B54801F01EF900220221B34801F019F9AF
:100DFC0000220421B04801F014F900220821AE4869
:100E0C0001F00FF900221021AB4801F00AF9002281
:100E1C002021A94801F005F901224021A64801F042
:100E2C0000F944E101220121A34801F0FAF8002263
:100E3C000221A14801F0F5F8002204219E4801F09E
:100E4C00F0F8012208219C4801F0EBF80122102156
:100E5C00994801F0E6F801222021974801F0E1F8C9
:100E6C0001224021944801F0DCF820E1002201210C
:100E7C00914801F0D6F8002202218F4801F0D1F8F8
:100E8C00012204218C4801F0CCF8002208218A4868
:100E9C0001F0C7F800221021874801F0C2F80122A6
:100EAC002021854801F0BDF800224021824801F044
:100EBC00B8F8FCE0002201217F4801F0B2F80022D2
:100ECC0002217D4801F0ADF8002204217A4801F09E
:100EDC00A8F800220821784801F0A3F8012210217B
:100EEC00754801F09EF801222021734801F099F811
:100EFC0000224021704801F094F8D8E00122012131
:100F0C006D4801F08EF8002202216B4801F089F83F
:100F1C0000220421684801F084F801220821664867
:100F2C0001F07FF801221021634801F07AF80022C9
:100F3C002021614801F075F8002240215E4801F043
:100F4C0070F8B4E0002201215B4801F06AF801223C
:100F5C000221594801F065F800220421564801F09D
:100F6C0060F800220821544801F05BF8012210219E
:100F7C00514801F056F8002220214F4801F051F859
:100F8C00002240214C4801F04CF890E00022012155
:100F9C00494801F046F801220221474801F041F886
:100FAC0000220421444801F03CF800220821424868
:100FBC0001F037F8002210213F4801F032F80022EE
:100FCC0020213D4801F02DF8002240213A4801F043
:100FDC0028F86CE000220121374801F022F80022A9
:100FEC000221354801F01DF800220421324801F09D
:100FFC0018F801220821304801F013F801221021C1
:10100C002D4801F00EF8012220212B4801F009F89F
:10101C0001224021284801F004F848E00022012177
:10102C00254800F0FEFF00220221234800F0F9FFC2
:10103C0000220421204800F0F4FF002208211E4861
:10104C0000F0EFFF002210211B4800F0EAFF002205
:10105C002021194800F0E5FF00224021164800F03D
:10106C00E0FF24E000220121134800F0DAFF002207
:10107C000221114800F0D5FF002204210E4800F097
:10108C00D0FF002208210C4800F0CBFF01221021D8
:10109C00094800F0C6FF00222021074800F0C1FFDC
:1010AC0000224021044800F0BCFF00E000BF00BF5C
:1010BC000837BD4680BD00BF000C014080B582B032
:1010CC0000AF78607B68092B00F2BC8101A252F85A
:1010DC0023F000BF091100085D110008B1110008D0
:1010EC000512000859120008AD120008011300087F
:1010FC0055130008A9130008FD13000800228021D5
:10110C00D34800F08EFF00224FF48071D04800F0DD
:10111C0088FF00224FF40071CD4800F082FF0022BE
:10112C004FF48061CA4800F07CFF00224FF400614C
:10113C00C74800F076FF00224FF48051C44800F0FD
:10114C0070FF01224FF40051C14800F06AFF7AE1B0
:10115C0001228021BE4800F064FF00224FF4807110
:10116C00BB4800F05EFF00224FF40071B84800F05D
:10117C0058FF01224FF48061B54800F052FF012264
:10118C004FF40061B24800F04CFF01224FF4805143
:10119C00AF4800F046FF01224FF40051AC4800F07C
:1011AC0040FF50E100228021A94800F03AFF0022C4
:1011BC004FF48071A64800F034FF01224FF4007107
:1011CC00A34800F02EFF00224FF48061A04800F0ED
:1011DC0028FF00224FF400619D4800F022FF0122FD
:1011EC004FF480519A4800F01CFF00224FF400513C
:1011FC00974800F016FF26E100228021944800F069
:10120C0010FF00224FF48071914800F00AFF002279
:10121C004FF400718E4800F004FF00224FF48061FF
:10122C008B4800F0FEFE01224FF40061884800F06C
:10123C00F8FE01224FF48051854800F0F2FE0022A6
:10124C004FF40051824800F0ECFEFCE001228021BA
:10125C007F4800F0E6FE00224FF480717C4800F0DD
:10126C00E0FE00224FF40071794800F0DAFE012212
:10127C004FF48061764800F0D4FE01224FF40061F7
:10128C00734800F0CEFE00224FF48051704800F0FD
:10129C00C8FE00224FF400516D4800F0C2FED2E0AF
:1012AC00002280216A4800F0BCFE01224FF48071BC
:1012BC00674800F0B6FE00224FF40071644800F05D
:1012CC00B0FE00224FF48061614800F0AAFE0122BA
:1012DC004FF400615E4800F0A4FE00224FF48051F0
:1012EC005B4800F09EFE00224FF40051584800F07D
:1012FC0098FEA8E000228021554800F092FE0122C1
:10130C004FF48071524800F08CFE00224FF40071B3
:10131C004F4800F086FE00224FF480614C4800F0EC
:10132C0080FE00224FF40061494800F07AFE002252
:10133C004FF48051464800F074FE00224FF40051E7
:10134C00434800F06EFE7EE000228021404800F011
:10135C0068FE00224FF480713D4800F062FE0022CE
:10136C004FF400713A4800F05CFE01224FF48061AA
:10137C00374800F056FE01224FF40061344800F06B
:10138C0050FE01224FF48051314800F04AFE0122F8
:10139C004FF400512E4800F044FE54E0002280210E
:1013AC002B4800F03EFE00224FF48071284800F0DC
:1013BC0038FE00224FF40071254800F032FE002266
:1013CC004FF48061224800F02CFE00224FF40061A3
:1013DC001F4800F026FE00224FF480511C4800F0FC
:1013EC0020FE00224FF40051194800F01AFE2AE0AA
:1013FC0000228021164800F014FE00224FF4807168
:10140C00134800F00EFE00224FF40071104800F05B
:10141C0008FE00224FF480610D4800F002FE01220C
:10142C004FF400610A4800F0FCFD00224FF480519B
:10143C00074800F0F6FD00224FF40051044800F07C
:10144C00F0FD00E000BF00BF0837BD4680BD00BF07
:10145C00000C014080B485B000AFF860B9607A60D0
:10146C003B60084AFB681360064ABB685360054A38
:10147C007B689360034A3B68D36000BF1437BD465A
:10148C0080BC7047A000002080B582B000AF7860AF
:10149C007B68012B03D07B68022B17D02DE0194BF6
:1014AC001B681846FFF77AFC164B5B681846FFF76B
:1014BC0005FE00224FF48041134800F0B2FD0122DA
:1014CC004FF40041104800F0ACFD16E00D4B9B684A
:1014DC001846FFF763FC0B4BDB681846FFF7EEFD75
:1014EC0001224FF48041084800F09BFD00224FF48C
:1014FC000041054800F095FD00BF00BF0837BD4610
:10150C0080BD00BFA0000020000C014080B582B05F
:10151C0000AF00F083FA00F051F800F0D7F800F0BB
:10152C0089F8234801F0E6F9224B00221A600023C7
:10153C007B6000233B604FF47A7000F03BF91E4B4C
:10154C001B68012B2ED17B68032B2DD801A252F8DE
:10155C0023F000BF711500087915000891150008DB
:10156C00991500087B6801337B601EE001233B600A
:10157C003868FFF789FF4FF4FA7000F01BF902236B
:10158C007B6012E07B6801337B600EE002233B60E2
:10159C003868FFF779FF4FF4FA7000F00BF900236D
:1015AC007B6002E000BF00E000BFFEF7CFFEC6E7A5
:1015BC00B00000209C000020FC00002080B590B002
:1015CC0000AF07F1180328220021184601F04AFD4C
:1015DC003B1D00221A605A609A60DA601A6102237D
:1015EC00BB610123BB621023FB6200237B6307F109
:1015FC001803184600F046FD0346002B01D000F0FE
:10160C00D3F80F237B600023BB600023FB60002317
:10161C003B6100237B613B1D0021184600F0B4FFA9
:10162C000346002B01D000F0BFF800BF4037BD4689
:10163C0080BD000080B586B000AF07F10803002222
:10164C001A605A609A60DA603B4600221A605A604F
:10165C001D4B4FF080421A601B4B41F63F725A6093
:10166C00194B00229A60184B0922DA60164B0022A3
:10167C001A61154B00229A61134801F0EBF80346EE
:10168C00002B01D000F090F84FF48053BB6007F1B1
:10169C00080319460C4801F081FA0346002B01D0CF
:1016AC0000F082F800233B6000237B603B46194628
:1016BC00054801F049FC0346002B01D000F074F8FA
:1016CC0000BF1837BD4680BDB000002080B586B085
:1016DC0000AF07F1080300221A605A609A60DA60C2
:1016EC00284B9B69274A43F004039361254B9B6964
:1016FC0003F004037B607B68224B9B69214A43F017
:10170C00080393611F4B9B6903F008033B603B6824
:10171C0000224FF47C711C4800F083FC00224FF631
:10172C00FF711A4800F07DFC0E23BB600023FB60A8
:10173C0001233B6107F108031946134800F0DEFA58
:10174C004FF47C73BB600123FB6000233B610223DD
:10175C007B6107F1080319460B4800F0CFFA4FF6EE
:10176C00FF73BB600123FB6000233B6102237B61A1
:10177C0007F108031946054800F0C0FA00BF1837F6
:10178C00BD4680BD0010024000080140000C014025
:10179C0080B582B000AF786000F05AF8FEF72AFDF1
:1017AC0000BF0837BD4680BD80B400AF72B600BF25
:1017BC00FEE7000080B483B000AF7860074B1B6875
:1017CC007A6892FBF3F3064A1360064B00221A6008
:1017DC0000BF0C37BD4680BC704700BF48000020DE
:1017EC00F8000020FC00002080B483B000AF7860CB
:1017FC00074B1B687A6892FBF3F3064A1360064B9F
:10180C0000221A6000BF0C37BD4680BC704700BF79
:10181C0048000020000100200401002080B483B0A7
:10182C0000AF7860074B1B687A6892FBF3F3064AAB
:10183C001360064B00221A6000BF0C37BD4680BCFB
:10184C00704700BF48000020080100200C01002058
:10185C0080B400AF194B1B68002B0BDD174B1B68BA
:10186C00013B164A1360154B1B68002B02D1144B1D
:10187C0001221A60134B1B68002B0BDD114B1B68EC
:10188C00013B104A13600F4B1B68002B02D10E4B0F
:10189C0001221A600D4B1B68002B0BDD0B4B1B68D8
:1018AC00013B0A4A1360094B1B68002B02D1084B01
:1018BC0001221A6000BFBD4680BC7047F8000020B2
:1018CC00FC00002000010020040100200801002081
:1018DC000C01002080B483B000AF0E4B9B690D4A05
:1018EC0043F0010393610B4B9B6903F001037B6095
:1018FC007B68084BDB69074A43F08053D361054B87
:10190C00DB6903F080533B603B6800BF0C37BD467E
:10191C0080BC70470010024080B584B000AF786086
:10192C007B681B68B3F1804F13D10C4BDB690B4AFE
:10193C0043F00103D361094BDB6903F00103FB6046
:10194C00FB68002200211C2000F0A1F91C2000F0F3
:10195C00BAF900BF1037BD4680BD00BF0010024071
:10196C0080B400AFFEE780B400AFFEE780B400AFF8
:10197C00FEE780B400AFFEE780B400AFFEE780B4B2
:10198C0000AF00BFBD4680BC704780B400AF00BF45
:10199C00BD4680BC704780B400AF00BFBD4680BC64
:1019AC00704780B500AF00F07FF800BF80BD00002D
:1019BC0080B500AF024800F0E9FF00BF80BD00BF5A
:1019CC00B000002080B400AF00BFBD4680BC7047A3
:1019DC000C480D490D4A002302E0D458C45004337E
:1019EC00C4188C42F9D30A4A0A4C002301E0136054
:1019FC000432A242FBD3FFF7E5FF01F00FFBFFF728
:101A0C0085FD70470000002058000020C030000801
:101A1C005800002014010020FEE7000080B500AF44
:101A2C00084B1B68074A43F010031360032000F0B7
:101A3C0023F90F2000F008F8FFF74CFF002318469D
:101A4C0080BD00BF0020024080B582B000AF78603E
:101A5C00124B1A68124B1B7819464FF47A73B3FB6E
:101A6C00F1F3B2FBF3F3184600F03BF90346002BFD
:101A7C0001D001230EE07B680F2B0AD80022796875
:101A8C004FF0FF3000F003F9064A7B681360002327
:101A9C0000E0012318460837BD4680BD4C000020ED
:101AAC00540000205000002080B400AF054B1B7880
:101ABC001A46054B1B681344034A136000BFBD460E
:101ACC0080BC7047540000201001002080B400AF8F
:101ADC00024B1B681846BD4680BC704710010020A5
:101AEC0080B485B000AF78607B6803F00703FB60BF
:101AFC000C4BDB68BB60BA684FF6FF031340BB604E
:101B0C00FB681A02BB68134343F0BF6343F4003312
:101B1C00BB60044ABB68D36000BF1437BD4680BCB1
:101B2C00704700BF00ED00E080B400AF044BDB68F1
:101B3C001B0A03F007031846BD4680BC704700BF64
:101B4C0000ED00E080B483B000AF0346FB7197F961
:101B5C000730002B0BDBFB7903F01F02064997F9CA
:101B6C0007305B09012000FA02F241F8232000BF84
:101B7C000C37BD4680BC704700E100E080B483B0F8
:101B8C0000AF03463960FB7197F90730002B0ADB75
:101B9C003B68DAB20C4997F907301201D2B20B4408
:101BAC0083F800230AE03B68DAB20849FB7903F0BA
:101BBC000F03043B1201D2B20B441A7600BF0C3750
:101BCC00BD4680BC704700BF00E100E000ED00E0C6
:101BDC0080B489B000AFF860B9607A60FB6803F03C
:101BEC000703FB61FB69C3F10703042B28BF042324
:101BFC00BB61FB690433062B02D9FB69033B00E094
:101C0C0000237B614FF0FF32BB6902FA03F3DA4326
:101C1C00BB681A407B699A404FF0FF317B6901FA2F
:101C2C0003F3D9437B680B40134318462437BD4656
:101C3C0080BC704780B582B000AF78607B68013B98
:101C4C00B3F1807F01D301230FE00A4A7B68013B8B
:101C5C0053600F214FF0FF30FFF790FF054B002230
:101C6C009A60044B07221A60002318460837BD46B9
:101C7C0080BD00BF10E000E080B582B000AF78609E
:101C8C007868FFF72DFF00BF0837BD4680BD80B5D3
:101C9C0086B000AF0346B9607A60FB7300237B61AA
:101CAC00FFF742FF78617A68B9687869FFF790FFAF
:101CBC00024697F90F3011461846FFF75FFF00BF39
:101CCC001837BD4680BD80B582B000AF0346FB71AE
:101CDC0097F907301846FFF735FF00BF0837BD46A8
:101CEC0080BD80B582B000AF78607868FFF7A2FF46
:101CFC00034618460837BD4680BD000080B48BB043
:101D0C0000AF7860396000237B6200233B6261E1A5
:101D1C0001227B6A02FA03F3FB613B681B68FA69D8
:101D2C001340BB61BA69FB699A4240F050813B6831
:101D3C005B68974A93425ED0954A934275D8954A10
:101D4C00934258D0934A93426FD8934A934252D0BD
:101D5C00914A934269D8914A93424CD08F4A93420C
:101D6C0063D88F4A934246D08D4A93425DD8122B4A
:101D7C002AD8122B59D801A252F823F0031E0008BE
:101D8C00DD1D0008EF1D0008311E0008371E00087D
:101D9C00371E0008371E0008371E0008371E0008C3
:101DAC00371E0008371E0008371E0008371E0008B3
:101DBC00371E0008371E0008371E0008371E0008A3
:101DCC00E51D0008F91D0008764A934213D02CE05B
:101DDC003B68DB683B6229E03B68DB6804333B62B1
:101DEC0024E03B68DB6808333B621FE03B68DB6840
:101DFC000C333B621AE03B689B68002B02D1042336
:101E0C003B6213E03B689B68012B05D108233B62C6
:101E1C007B68FA691A6109E008233B627B68FA69FE
:101E2C005A6103E000233B6200E000BFBB69FF2B5B
:101E3C0001D87B6801E07B6804337B61BB69FF2BB5
:101E4C0002D87B6A9B0002E07B6A083B9B003B61EB
:101E5C007B691A680F213B6901FA03F3DB431A40D3
:101E6C00396A3B6901FA03F31A437B691A603B68D0
:101E7C005B6803F08053002B00F0A9804A4B9B69F0
:101E8C00494A43F001039361474B9B6903F00103FB
:101E9C00BB60BB68454A7B6A9B08023352F823300F
:101EAC00FB607B6A03F003039B000F2202FA03F32F
:101EBC00DB43FA681340FB607B683D4A93420DD0CC
:101ECC007B683C4A934207D07B683B4A934201D1E2
:101EDC00022304E0032302E0012300E000237A6ADA
:101EEC0002F0030292009340FA681343FB602F49FF
:101EFC007B6A9B080233FA6841F823203B685B68D5
:101F0C0003F48033002B06D02C4B1A682B49BB6989
:101F1C0013430B6006E0294B1A68BB69DB43274966
:101F2C0013400B603B685B6803F40033002B06D056
:101F3C00224B5A682149BB6913434B6006E01F4B87
:101F4C005A68BB69DB431D4913404B603B685B68B7
:101F5C0003F48013002B06D0184B9A681749BB6901
:101F6C0013438B6006E0154B9A68BB69DB4313493E
:101F7C0013408B603B685B6803F40013002B1FD08D
:101F8C000E4BDA680D49BB691343CB601FE000BFF1
:101F9C00000032100000311000002210000021104F
:101FAC00000012100000111000100240000001404F
:101FBC0000080140000C01400010014000040140E9
:101FCC000B4BDA68BB69DB4309491340CB607B6A76
:101FDC0001337B623B681A687B6A22FA03F3002B9D
:101FEC007FF496AE00BF00BF2C37BD4680BC704757
:101FFC000004014080B485B000AF78600B467B8054
:10200C007B689A687B881340002B02D00123FB73FA
:10201C0001E00023FB73FB7B18461437BD4680BCE4
:10202C00704780B483B000AF78600B467B8013465A
:10203C007B707B78002B03D07A887B681A6103E075
:10204C007B881A047B681A6100BF0C37BD4680BCC4
:10205C00704780B485B000AF78600B467B807B689E
:10206C00DB68FB607A88FB6813401A04FB68D94371
:10207C007B880B401A437B681A6100BF1437BD463E
:10208C0080BC704780B586B000AF78607B68002B51
:10209C0001D1012372E27B681B6803F00103002B62
:1020AC0000F08780924B5B6803F00C03042B0CD080
:1020BC008F4B5B6803F00C03082B12D18C4B5B68C5
:1020CC0003F48033B3F5803F0BD1894B1B6803F4C9
:1020DC000033002B6CD07B685B68002B68D101232C
:1020EC004CE27B685B68B3F5803F06D1804B1B6884
:1020FC007F4A43F4803313602EE07B685B68002BCF
:10210C000CD17B4B1B687A4A23F480331360784BD9
:10211C001B68774A23F4802313601DE07B685B689F
:10212C00B3F5A02F0CD1724B1B68714A43F480237A
:10213C0013606F4B1B686E4A43F4803313600BE0E3
:10214C006B4B1B686A4A23F480331360684B1B6823
:10215C00674A23F4802313607B685B68002B13D0E1
:10216C00FFF7B4FC386108E0FFF7B0FC02463B69AE
:10217C00D31A642B01D9032300E25D4B1B6803F4D3
:10218C000033002BF0D014E0FFF7A0FC386108E01E
:10219C00FFF79CFC02463B69D31A642B01D903233D
:1021AC00ECE1534B1B6803F40033002BF0D100E03F
:1021BC0000BF7B681B6803F00203002B63D04C4B01
:1021CC005B6803F00C03002B0BD0494B5B6803F0EE
:1021DC000C03082B1CD1464B5B6803F48033002B9B
:1021EC0016D1434B1B6803F00203002B05D07B6810
:1021FC001B69012B01D00123C0E13D4B1B6823F06F
:10220C00F8027B685B69DB00394913430B603AE0E9
:10221C007B681B69002B20D0364B01221A60FFF71C
:10222C0055FC386108E0FFF751FC02463B69D31AB4
:10223C00022B01D90323A1E12D4B1B6803F00203F0
:10224C00002BF0D02A4B1B6823F0F8027B685B69EB
:10225C00DB00274913430B6015E0264B00221A6064
:10226C00FFF734FC386108E0FFF730FC02463B69AD
:10227C00D31A022B01D9032380E11D4B1B6803F0F9
:10228C000203002BF0D17B681B6803F00803002BC2
:10229C003AD07B689B69002B19D0174B01221A602E
:1022AC00FFF714FC386108E0FFF710FC02463B69AD
:1022BC00D31A022B01D9032360E10D4B5B6A03F0A7
:1022CC000203002BF0D0012000F0A6FA1CE00A4B10
:1022DC0000221A60FFF7FAFB38610FE0FFF7F6FBFC
:1022EC0002463B69D31A022B08D9032346E100BFEF
:1022FC00001002400000424280044242924B5B6A52
:10230C0003F00203002BE9D17B681B6803F0040384
:10231C00002B00F0A6800023FB758B4BDB6903F0D0
:10232C008053002B0DD1884BDB69874A43F08053D7
:10233C00D361854BDB6903F08053BB60BB68012321
:10234C00FB75824B1B6803F48073002B18D17F4BF9
:10235C001B687E4A43F480731360FFF7B7FB386148
:10236C0008E0FFF7B3FB02463B69D31A642B01D993
:10237C00032303E1754B1B6803F48073002BF0D02F
:10238C007B68DB68012B06D16F4B1B6A6E4A43F0EE
:10239C00010313622DE07B68DB68002B0CD16A4BC8
:1023AC001B6A694A23F001031362674B1B6A664A76
:1023BC0023F0040313621CE07B68DB68052B0CD153
:1023CC00614B1B6A604A43F0040313625E4B1B6A49
:1023DC005D4A43F0010313620BE05B4B1B6A5A4AE4
:1023EC0023F001031362584B1B6A574A23F0040372
:1023FC0013627B68DB68002B15D0FFF767FB386135
:10240C000AE0FFF763FB02463B69D31A41F28832BC
:10241C00934201D90323B1E04B4B1B6A03F0020337
:10242C00002BEED014E0FFF751FB38610AE0FFF708
:10243C004DFB02463B69D31A41F28832934201D9D3
:10244C0003239BE0404B1B6A03F00203002BEED1ED
:10245C00FB7D012B05D13C4BDB693B4A23F08053C0
:10246C00D3617B68DB69002B00F08780364B5B689F
:10247C0003F00C03082B61D07B68DB69022B46D17F
:10248C00334B00221A60FFF721FB386108E0FFF79D
:10249C001DFB02463B69D31A022B01D903236DE0C5
:1024AC00294B1B6803F00073002BF0D17B681B6A6F
:1024BC00B3F5803F08D1244B5B6823F400327B6872
:1024CC009B68214913434B601F4B5B6823F47412C8
:1024DC007B68196A7B685B6A0B431B4913434B602F
:1024EC001B4B01221A60FFF7F1FA386108E0FFF785
:1024FC00EDFA02463B69D31A022B01D903233DE0C6
:10250C00114B1B6803F00073002BF0D035E0104B1F
:10251C0000221A60FFF7DAFA386108E0FFF7D6FA02
:10252C0002463B69D31A022B01D9032326E0064B42
:10253C001B6803F00073002BF0D11EE07B68DB6995
:10254C00012B07D1012319E000100240007000405C
:10255C00600042420B4B5B68FB60FB6803F480320B
:10256C007B681B6A9A4206D1FB6803F470127B6885
:10257C005B6A9A4201D0012300E000231846183709
:10258C00BD4680BD0010024080B584B000AF7860BD
:10259C0039607B68002B01D10123D0E06A4B1B68AA
:1025AC0003F007033A689A4210D9674B1B6823F073
:1025BC00070265493B6813430B60634B1B6803F0D0
:1025CC0007033A689A4201D00123B8E07B681B6884
:1025DC0003F00203002B20D07B681B6803F004037C
:1025EC00002B05D0594B5B68584A43F4E0635360A9
:1025FC007B681B6803F00803002B05D0534B5B680A
:10260C00524A43F460535360504B5B6823F0F00222
:10261C007B689B684D4913434B607B681B6803F0D8
:10262C000103002B40D07B685B68012B07D1474B23
:10263C001B6803F40033002B15D101237FE07B686A
:10264C005B68022B07D1414B1B6803F00073002B16
:10265C0009D1012373E03D4B1B6803F00203002BEF
:10266C0001D101236BE0394B5B6823F003027B68DB
:10267C005B68364913434B60FFF728FAF8600AE0B1
:10268C00FFF724FA0246FB68D31A41F288329342D0
:10269C0001D9032353E02D4B5B6803F00C027B68DC
:1026AC005B689B009A42EBD1274B1B6803F0070336
:1026BC003A689A4210D2244B1B6823F00702224935
:1026CC003B6813430B60204B1B6803F007033A680D
:1026DC009A4201D0012332E07B681B6803F00403AB
:1026EC00002B08D0194B5B6823F4E0627B68DB6835
:1026FC00164913434B607B681B6803F00803002BDF
:10270C0009D0124B5B6823F460527B681B69DB00B9
:10271C000E4913434B6000F021F802460B4B5B68EB
:10272C001B0903F00F030A49CB5C22FA03F3094A95
:10273C001360094B1B681846FFF786F900231846EF
:10274C001037BD4680BD00BF002002400010024083
:10275C00A83000084C0000205000002090B48AB033
:10276C0000AF294B3C1D0FCB84E80F0040F2012336
:10277C003B800023FB610023BB6100237B620023B1
:10278C007B6100233B62214B5B68FB61FB6903F0BF
:10279C000C03042B02D0082B03D02BE01C4B3B6208
:1027AC002BE0FB699B0C03F00F0328333B4413F81D
:1027BC00243C7B61FB6903F48033002B12D0134B58
:1027CC005B685B0C03F0010328333B4413F8283C93
:1027DC00BB617B690E4A03FB02F2BB69B2FBF3F3EC
:1027EC007B6204E07B690B4A02FB03F37B627B6A2E
:1027FC003B6202E0064B3B6200BF3B6A184628373F
:10280C00BD4690BC704700BF9830000800100240D5
:10281C0000127A0000093D0080B485B000AF7860EA
:10282C000A4B1B680A4AA2FB03235B0A7A6802FB69
:10283C0003F3FB6000BFFB685A1EFA60002BF9D152
:10284C0000BF00BF1437BD4680BC70474C00002051
:10285C00D34D621080B582B000AF78607B68002BDE
:10286C0001D1012341E07B6893F83D30DBB2002BB2
:10287C0006D17B68002283F83C207868FFF74CF87F
:10288C007B68022283F83D207B681A687B680433DE
:10289C001946104600F06AFA7B68012283F846203C
:1028AC007B68012283F83E207B68012283F83F205D
:1028BC007B68012283F840207B68012283F8412049
:1028CC007B68012283F842207B68012283F8432035
:1028DC007B68012283F844207B68012283F8452021
:1028EC007B68012283F83D20002318460837BD463B
:1028FC0080BD000080B485B000AF78607B6893F831
:10290C003D30DBB2012B01D0012335E07B68022284
:10291C0083F83D207B681B68DA687B681B6842F093
:10292C000102DA607B681B68164A934209D07B6807
:10293C001B68B3F1804F04D07B681B68124A93422A
:10294C0011D17B681B689B6803F00703FB60FB6875
:10295C00062B10D07B681B681A687B681B6842F0DA
:10296C0001021A6007E07B681B681A687B681B68A9
:10297C0042F001021A60002318461437BD4680BC91
:10298C00704700BF002C01400004004080B582B0AD
:10299C0000AF78607B681B681B6903F00203022B95
:1029AC0022D17B681B68DB6803F00203022B1BD16E
:1029BC007B681B686FF002021A617B6801221A7730
:1029CC007B681B689B6903F00303002B03D07868BA
:1029DC0000F0B1F905E0786800F0A4F9786800F02F
:1029EC00B3F97B6800221A777B681B681B6903F0BC
:1029FC000403042B22D17B681B68DB6803F00403FF
:102A0C00042B1BD17B681B686FF004021A617B6876
:102A1C0002221A777B681B689B6903F44073002BB6
:102A2C0003D0786800F087F905E0786800F07AF94F
:102A3C00786800F089F97B6800221A777B681B683C
:102A4C001B6903F00803082B22D17B681B68DB6829
:102A5C0003F00803082B1BD17B681B686FF008027E
:102A6C001A617B6804221A777B681B68DB6903F0A8
:102A7C000303002B03D0786800F05DF905E078685B
:102A8C0000F050F9786800F05FF97B6800221A7743
:102A9C007B681B681B6903F01003102B22D17B6829
:102AAC001B68DB6803F01003102B1BD17B681B68C1
:102ABC006FF010021A617B6808221A777B681B681A
:102ACC00DB6903F44073002B03D0786800F033F912
:102ADC0005E0786800F026F9786800F035F97B6835
:102AEC0000221A777B681B681B6903F00103012B1A
:102AFC000ED17B681B68DB6803F00103012B07D147
:102B0C007B681B686FF001021A617868FEF740FE63
:102B1C007B681B681B6903F08003802B0ED17B68DC
:102B2C001B68DB6803F08003802B07D17B681B6874
:102B3C006FF080021A61786800F067FA7B681B6896
:102B4C001B6903F04003402B0ED17B681B68DB68CC
:102B5C0003F04003402B07D17B681B686FF04002E9
:102B6C001A61786800F0F9F87B681B681B6903F040
:102B7C002003202B0ED17B681B68DB6803F020033D
:102B8C00202B07D17B681B686FF020021A617868D4
:102B9C0000F032FA00BF0837BD4680BD80B584B066
:102BAC0000AF786039607B6893F83C30012B01D121
:102BBC000223B3E07B68012283F83C207B6802226D
:102BCC0083F83D207B681B689B68FB60FB6823F0E7
:102BDC007703FB60FB6823F47F43FB607B681B6817
:102BEC00FA689A603B681B68B3F5005F3ED0B3F59A
:102BFC00005F00F28780B3F5805F00F08580B3F54D
:102C0C00805F7FD8702B1AD0702B7BD8602B50D064
:102C1C00602B77D8502B3CD0502B73D8402B58D0EE
:102C2C00402B6FD8302B64D0302B6BD8202B60D03E
:102C3C00202B67D8002B5CD0102B5AD062E07B681D
:102C4C0018683B6899683B685A683B68DB6800F019
:102C5C005CF97B681B689B68FB60FB6843F077033F
:102C6C00FB607B681B68FA689A604EE07B681868AA
:102C7C003B6899683B685A683B68DB6800F045F92B
:102C8C007B681B689A687B681B6842F480429A6078
:102C9C003BE07B6818683B6859683B68DB681A4600
:102CAC0000F0BCF87B681B685021184600F013F943
:102CBC002BE07B6818683B6859683B68DB681A46F0
:102CCC0000F0DAF87B681B686021184600F003F905
:102CDC001BE07B6818683B6859683B68DB681A46E0
:102CEC0000F09CF87B681B684021184600F0F3F854
:102CFC000BE07B681A683B681B681946104600F0AD
:102D0C00EAF802E000BF00E000BF7B68012283F814
:102D1C003D207B68002283F83C20002318461037A6
:102D2C00BD4680BD80B483B000AF786000BF0C3767
:102D3C00BD4680BC704780B483B000AF786000BFE4
:102D4C000C37BD4680BC704780B483B000AF786050
:102D5C0000BF0C37BD4680BC704780B483B000AF59
:102D6C00786000BF0C37BD4680BC704780B485B01E
:102D7C0000AF786039607B681B68FB607B68254A14
:102D8C00934207D07B68B3F1804F03D07B68224A13
:102D9C00934208D1FB6823F07003FB603B685B68CF
:102DAC00FA681343FB607B681A4A934207D07B682E
:102DBC00B3F1804F03D07B68174A934208D1FB686C
:102DCC0023F44073FB603B68DB68FA681343FB60D9
:102DDC00FB6823F080023B685B691343FB607B68F4
:102DEC00FA681A603B689A687B68DA623B681A6812
:102DFC007B689A627B68074A934203D13B681A69E5
:102E0C007B681A637B6801225A6100BF1437BD4688
:102E1C0080BC7047002C01400004004080B487B097
:102E2C0000AFF860B9607A60FB681B6A7B61FB6875
:102E3C001B6A23F00102FB681A62FB689B693B6109
:102E4C003B6923F0F0033B617B681B013A69134338
:102E5C003B617B6923F00A037B617A69BB6813438E
:102E6C007B61FB683A699A61FB687A691A6200BFF8
:102E7C001C37BD4680BC704780B487B000AFF8608B
:102E8C00B9607A60FB681B6A23F01002FB681A6257
:102E9C00FB689B697B61FB681B6A3B617B6923F464
:102EAC0070437B617B681B037A6913437B613B69CD
:102EBC0023F0A0033B61BB681B013A6913433B61E0
:102ECC00FB687A699A61FB683A691A6200BF1C3721
:102EDC00BD4680BC704780B485B000AF7860396067
:102EEC007B689B68FB60FB6823F07003FB603A68AF
:102EFC00FB68134343F00703FB607B68FA689A6036
:102F0C0000BF1437BD4680BC704780B487B000AF9B
:102F1C00F860B9607A603B60FB689B687B617B6999
:102F2C0023F47F437B613B681A027B681A43BB68BE
:102F3C0013437A6913437B61FB687A699A6000BF1B
:102F4C001C37BD4680BC704780B485B000AF78603C
:102F5C0039607B6893F83C30012B01D1022341E0AE
:102F6C007B68012283F83C207B68022283F83D2099
:102F7C007B681B685B68FB607B681B689B68BB603D
:102F8C00FB6823F07003FB603B681B68FA68134313
:102F9C00FB607B681B68FA685A607B681B68144A84
:102FAC00934209D07B681B68B3F1804F04D07B68D7
:102FBC001B68104A93420CD1BB6823F08003BB60A2
:102FCC003B685B68BA681343BB607B681B68BA6874
:102FDC009A607B68012283F83D207B68002283F88D
:102FEC003C20002318461437BD4680BC704700BFF8
:102FFC00002C01400004004080B483B000AF786026
:10300C0000BF0C37BD4680BC704780B483B000AFA6
:10301C00786000BF0C37BD4680BC704770B5002689
:10302C000C4D0D4C641BA410A64209D100F022F8E3
:10303C0000260A4D0A4C641BA410A64205D170BD93
:10304C0055F8043B98470136EEE755F8043B984792
:10305C000136F2E7B8300008B8300008B830000884
:10306C00BC30000803460244934200D1704703F879
:10307C00011BF9E7F8B500BFF8BC08BC9E467047C9
:0C308C00F8B500BFF8BC08BC9E467047B9
:1030980002030405060708090A0B0C0D0E0F101091
:1030A80000000000000000000102030406070809F0
:0430B80031010008DA
:0430BC000D010008FA
:1030C00001000000010000000100000001000000FC
:1030D00001000000010000000100000001000000EC
:1030E00001000000010000000100000001000000DC
:1030F0002C0100002C0100002C0100000500000044
:1031000003000000020000000A0000000024F40098
:083110001000000001000000A6
:04000005080019DDF9
:00000001FF
