:020000040800F2
:1000000000280020A9160008391600083F1600082D
:10001000451600084B1600085116000800000000A5
:10002000000000000000000000000000571600085B
:1000300063160008000000006F1600087B16000819
:10004000F1160008F1160008F1160008F116000874
:10005000F1160008F1160008F1160008F116000864
:10006000F1160008F1160008F1160008F116000854
:10007000F1160008F1160008F1160008F116000844
:10008000F1160008F1160008F1160008F116000834
:10009000F1160008F1160008F1160008F116000824
:1000A000F1160008F1160008F1160008F116000814
:1000B00089160008F116000800000000F11600087B
:1000C000F11600080000000000000000F116000812
:1000D00000000000F1160008F11600080000000002
:1000E000F1160008F1160008F116000800000000E3
:1000F0000000000000000000000000000000000000
:0C01000000000000000000005FF808F1A3
:10010C0010B5054C237833B9044B13B10448AFF345
:10011C0000800123237010BD580000200000000057
:10012C004C2D000808B5034B1BB103490348AFF332
:10013C00008008BD000000005C0000204C2D000871
:10014C0080B400AF064B1B68012B04D1044B00227A
:10015C001A60012300E000231846BD4680BC70479E
:10016C007400002080B400AF064B1B68012B04D137
:10017C00044B00221A60012300E000231846BD4600
:10018C0080BC70477800002080B400AF064B1B6821
:10019C00012B04D1044B00221A60012300E0002340
:1001AC001846BD4680BC70477C00002080B483B0EC
:1001BC0000AF78607B68002B03D10B4B01221A60D7
:1001CC000CE07B68012B03D1084B01221A6005E07F
:1001DC007B68022B02D1064B01221A6000BF0C3740
:1001EC00BD4680BC704700BF740000207800002022
:1001FC007C00002080B582B000AF00237B608FE0D4
:10020C004C4A7B6852F823204B497B6841F82320E9
:10021C004A4A7B6852F8232046497B6841F82320E0
:10022C007B68002B0AD10221454801F049FD0346A9
:10023C001946424A7B6842F823101AE07B68012B6E
:10024C000AD104213E4801F03BFD034619463B4AC6
:10025C007B6842F823100CE07B68022B09D1082143
:10026C00374801F02DFD03461946344A7B6842F8A5
:10027C002310304A7B6852F8232030497B6851F8B0
:10028C0023309A4249D12B4A7B6852F823202A49C1
:10029C007B6851F823309A423FD1274A7B6852F849
:1002AC00232028497B6851F823309A4217D0224AE0
:1002BC007B6852F8232023497B6841F823201E4A8F
:1002CC007B6852F82330002B27D17868FFF76EFF3C
:1002DC001D4A7B684FF4967142F823101DE01A4AB0
:1002EC007B6852F823305A1E17497B6841F823204B
:1002FC00154A7B6852F82330002B0ED10E4A7B68CE
:10030C0052F82330002B02D17868FFF74FFF0E4ACA
:10031C007B684FF4967142F823107B6801337B6045
:10032C007B68022B7FF76CAF00BF00BF0837BD4660
:10033C0080BD00BF0C000020180000200000002031
:10034C0000080140240000203000002080B500AFE0
:10035C009E4B1B68282B00F28D8301A252F823F0D0
:10036C0011040008890400088B070008A90800087C
:10037C0097090008810A0008810A0008810A000810
:10038C00810A0008810A0008810A0008810A000815
:10039C00810A0008810A0008810A0008810A000805
:1003AC00810A0008810A0008810A0008810A0008F5
:1003BC0043080008810A0008810A0008810A000825
:1003CC00810A0008810A0008810A0008810A0008D5
:1003DC00810A0008810A000863090008810A0008E4
:1003EC00810A0008810A0008810A0008810A0008B5
:1003FC00810A0008810A0008810A0008810A0008A5
:10040C004F0A00081E2001F055F8282001F06CF866
:10041C006F4B1B686F4A13606F4B1B686F4A1360FE
:10042C006F4B1B686F4A1360012210216E4801F05C
:10043C005EFC012240216C4801F059FC0122202174
:10044C00694801F054FC01228021674801F04FFCFF
:10045C0001224FF40071644801F049FC01224FF471
:10046C008071614801F043FC604B00221A60604BC4
:10047C0000221A60554B01221A600AE3544B1A6889
:10048C00554B1B681A44564B1B681344594A13604E
:10049C00564B1B68002B03D1564B1B68534A1360F9
:1004AC00534B1B68002B03D1524B1B68504A1360F3
:1004BC00474B1A684D4B1B689A421CDA4B4B1A6817
:1004CC004C4B1B689A4216DC00221021464801F066
:1004DC000EFC01224021444801F009FC012220219C
:1004EC00414801F004FC414B1A68394B1B68D31A84
:1004FC00414A13603FE03A4B1A683C4B1B689A42E6
:10050C001CDA3A4B1A68324B1B689A4216DC0122F1
:10051C008021354801F0EBFB00224021324801F0EC
:10052C00E6FB01222021304801F0E1FB2F4B1A6839
:10053C002B4B1B68D31A304A13601CE02B4B1B68E7
:10054C00002B18DD294B1A68254B1B689A4212DCCC
:10055C0001221021244801F0CAFB0122402122482B
:10056C0001F0C5FB002220211F4801F0C0FB1F4BEE
:10057C001B68214A1360164B1A68194B1B681A44E6
:10058C001B4B1B689A423BDA194B1A68194B1B68B8
:10059C009A4235DC01228021134801F0A8FB00228D
:1005AC004FF40071104801F0A2FB01224FF480714E
:1005BC000D4801F09CFB0E4B1A68054B1B68D21AB8
:1005CC00074B1B68D31A0D4A136060E0A000002093
:1005DC003C00002094000020400000209C000020E3
:1005EC0044000020980000200008014084000020F6
:1005FC0088000020800000208C000020900000204B
:10060C009A4B1A689A4B1B689A4221DA974B1A68D4
:10061C00984B1B681A44964B1B689A4218DB0122B4
:10062C008021954801F063FB01224FF40071924840
:10063C0001F05DFB00224FF480718F4801F057FBF5
:10064C008B4B1A68894B1B68D31A8C4A13601EE0BB
:10065C00874B1B68002B1ADD854B1A68834B1B6874
:10066C009A4214DC00228021834801F040FB0122D5
:10067C004FF40071804801F03AFB01224FF4807175
:10068C007D4801F034FB7A4B1B687C4A13607C4B31
:10069C001B687C4A82FB03129210DB17D31A784A30
:1006AC001360774B1968774B83FB01239A10CB1798
:1006BC00D21A13469B0013445B00CA1A704B1A6083
:1006CC006E4B1B686F4A82FB03129210DB17D31A16
:1006DC006A4A1360694B19686A4B83FB01239A10B1
:1006EC00CB17D21A13469B0013445B00CA1A634BF8
:1006FC001A60634B1868624B1968604B1A685F4B41
:10070C001B6800F033FD604B1B68012B0DD15F4B58
:10071C001B68013B5D4A1360554B1B68013B544AF7
:10072C0013604FF47A7000F0C5FEFFF709FD034625
:10073C00012B40F0A181012210214F4801F0D7FA82
:10074C00012280214C4801F0D2FA012220214A4892
:10075C0001F0CDFA01224FF48071474801F0C7FA3D
:10076C0001224021444801F0C2FA01224FF40071E9
:10077C00414801F0BCFA464B02221A607CE1454B21
:10078C001B68404A82FB03129210DB17D01A414BB4
:10079C001A683C4B83FB02139910D317C91A0B46EA
:1007AC009B000B445B00D11A0B4602460221002031
:1007BC0000F0DCFC384B1B68012B0AD110212E48B1
:1007CC0001F0ADFA80212C4801F0A9FAFA2000F0D2
:1007DC008BFEFFF7B5FC0346012B22D10122102121
:1007EC00254801F084FA01228021234801F07FFA88
:1007FC0001222021204801F07AFA01224FF4807165
:10080C001D4801F074FA012240211B4801F06FFAD7
:10081C0001224FF40071184801F069FA1C4B0322B5
:10082C001A60FFF79FFC0346012B40F02781184B01
:10083C0014221A6022E1174B1B680133154A13600E
:10084C00144B1B68632B02DD124B00221A60FFF75E
:10085C009BFC0346012B40F013810E4B1B68034A93
:10086C0013600B4B02221A600AE100BF3C0000200F
:10087C008800002044000020000801409000002067
:10088C008C0000206766666608010020840000204A
:10089C00A000002094000020100100207E4B1B685B
:1008AC007E4A82FB03129210DB17D01A7A4B1A681D
:1008BC007A4B83FB02139910D317C91A0B469B0072
:1008CC000B445B00D11A0B4602460321002000F0BA
:1008DC004DFC734B1B68012B0BD12021714801F08F
:1008EC001EFA4FF480716F4801F019FAFA2000F0EB
:1008FC00FBFDFFF725FC0346012B22D10122102121
:10090C00684801F0F4F901228021664801F0EFF902
:10091C0001222021634801F0EAF901224FF4807191
:10092C00604801F0E4F9012240215E4801F0DFF952
:10093C0001224FF400715B4801F0D9F95A4B0422A3
:10094C001A60FFF70FFC0346012B40F09B80564BBF
:10095C001E221A6096E0504B1B6801334E4A1360FE
:10096C004D4B1B68632B02DD4B4B00221A60FFF7CB
:10097C000BFC0346012B40F08780474B1B68464A13
:10098C001360494B03221A607EE0484B1B68434AB4
:10099C0082FB03129210DB17D01A444B1A683F4BA0
:1009AC0083FB02139910D317C91A0B469B000B44F7
:1009BC005B00D11A0B4602460221002000F0D6FB48
:1009CC00374B1B68012B0BD14021364801F0A7F99E
:1009DC004FF40071334801F0A2F9FA2000F084FDC5
:1009EC00FFF7AEFB0346012B22D1012210212D482B
:1009FC0001F07DF9012280212A4801F078F90122C9
:100A0C002021284801F073F901224FF48071254808
:100A1C0001F06DF901224021224801F068F9012210
:100A2C004FF400711F4801F062F91F4B00221A604D
:100A3C00FFF798FB0346012B28D11B4B28221A6089
:100A4C0024E01B4B1B680133194A1360184B1B68BD
:100A5C00632B02DD164B00221A60FFF795FB034651
:100A6C00012B15D1124B1B68114A13600E4B04223B
:100A7C001A600DE000BF0CE000BF0AE000BF08E008
:100A8C0000BF06E000BF04E000BF02E000BF00E0D2
:100A9C0000BF00BF80BD00BF98000020676666667F
:100AAC001001002000080140A0000020940000204C
:100ABC009C00002080B582B000AF78607B68092B69
:100ACC0000F2808101A252F823F000BF010B000854
:100ADC00490B0008910B0008D90B0008210C0008E9
:100AEC00690C0008B10C0008F90C0008410D000855
:100AFC00890D000800220121B54801F0F8F8002208
:100B0C000221B34801F0F3F800220421B04801F0AF
:100B1C00EEF800220821AE4801F0E9F8002210217D
:100B2C00AB4801F0E4F800222021A94801F0DFF8DD
:100B3C0001224021A64801F0DAF844E1012201210A
:100B4C00A34801F0D4F800220221A14801F0CFF80B
:100B5C00002204219E4801F0CAF8012208219C4879
:100B6C0001F0C5F801221021994801F0C0F80122CA
:100B7C002021974801F0BBF801224021944801F054
:100B8C00B6F820E100220121914801F0B0F80022D2
:100B9C0002218F4801F0ABF8012204218C4801F0AE
:100BAC00A6F8002208218A4801F0A1F800221021A1
:100BBC00874801F09CF801222021854801F097F824
:100BCC0000224021824801F092F8FCE00022012131
:100BDC007F4801F08CF8002202217D4801F087F853
:100BEC00002204217A4801F082F80022082178487A
:100BFC0001F07DF801221021754801F078F80122EE
:100C0C002021734801F073F800224021704801F054
:100C1C006EF8D8E0012201216D4801F068F800223D
:100C2C0002216B4801F063F800220421684801F0AE
:100C3C005EF801220821664801F059F801221021C2
:100C4C00634801F054F800222021614801F04FF86C
:100C5C00002240215E4801F04AF8B4E00022012154
:100C6C005B4801F044F801220221594801F03FF899
:100C7C0000220421564801F03AF800220821544879
:100C8C0001F035F801221021514801F030F8002212
:100C9C0020214F4801F02BF8002240214C4801F054
:100CAC0026F890E000220121494801F020F80122A9
:100CBC000221474801F01BF800220421444801F0AE
:100CCC0016F800220821424801F011F800221021E8
:100CDC003F4801F00CF8002220213D4801F007F8B4
:100CEC00002240213A4801F002F86CE00022012178
:100CFC00374800F0FCFF00220221354800F0F7FFD6
:100D0C0000220421324800F0F2FF01220821304871
:100D1C0000F0EDFF012210212D4800F0E8FF012228
:100D2C0020212B4800F0E3FF01224021284800F04D
:100D3C00DEFF48E000220121254800F0D8FF002208
:100D4C000221234800F0D3FF00220421204800F0A8
:100D5C00CEFF002208211E4800F0C9FF00221021FE
:100D6C001B4800F0C4FF00222021194800F0BFFFEF
:100D7C0000224021164800F0BAFF24E00022012195
:100D8C00134800F0B4FF00220221114800F0AFFF1D
:100D9C00002204210E4800F0AAFF002208210C4872
:100DAC0000F0A5FF01221021094800F0A0FF00224D
:100DBC002021074800F09BFF00224021044800F04E
:100DCC0096FF00E000BF00BF0837BD4680BD00BFE6
:100DDC00000C014080B582B000AF78607B68092BB5
:100DEC0000F2BC8101A252F823F000BF210E0008D2
:100DFC00750E0008C90E00081D0F0008710F0008C1
:100E0C00C50F0008191000086D100008C11000086B
:100E1C001511000800228021D34800F068FF002241
:100E2C004FF48071D04800F062FF00224FF4007143
:100E3C00CD4800F05CFF00224FF48061CA4800F0FE
:100E4C0056FF00224FF40061C74800F050FF00220B
:100E5C004FF48051C44800F04AFF01224FF4005176
:100E6C00C14800F044FF7AE101228021BE4800F025
:100E7C003EFF00224FF48071BB4800F038FF002287
:100E8C004FF40071B84800F032FF01224FF480613A
:100E9C00B54800F02CFF01224FF40061B24800F07D
:100EAC0026FF01224FF48051AF4800F020FF0122B1
:100EBC004FF40051AC4800F01AFF50E100228021A1
:100ECC00A94800F014FF00224FF48071A64800F0EE
:100EDC000EFF01224FF40071A34800F008FF00221E
:100EEC004FF48061A04800F002FF00224FF4006133
:100EFC009D4800F0FCFE01224FF480519A4800F00E
:100F0C00F6FE00224FF40051974800F0F0FE26E167
:100F1C0000228021944800F0EAFE00224FF48071F8
:100F2C00914800F0E4FE00224FF400718E4800F06E
:100F3C00DEFE00224FF480618B4800F0D8FE0122C7
:100F4C004FF40061884800F0D2FE01224FF480512A
:100F5C00854800F0CCFE00224FF40051824800F08E
:100F6C00C6FEFCE0012280217F4800F0C0FE00227A
:100F7C004FF480717C4800F0BAFE00224FF40071EF
:100F8C00794800F0B4FE01224FF48061764800F0FD
:100F9C00AEFE01224FF40061734800F0A8FE00225F
:100FAC004FF48051704800F0A2FE00224FF4005123
:100FBC006D4800F09CFED2E0002280216A4800F0CF
:100FCC0096FE01224FF48071674800F090FE0022DB
:100FDC004FF40071644800F08AFE00224FF48061E7
:100FEC00614800F084FE01224FF400615E4800F07D
:100FFC007EFE00224FF480515B4800F078FE002208
:10100C004FF40051584800F072FEA8E000228021F5
:10101C00554800F06CFE01224FF48071524800F0EC
:10102C0066FE00224FF400714F4800F060FE002273
:10103C004FF480614C4800F05AFE00224FF40061DE
:10104C00494800F054FE00224FF48051464800F00D
:10105C004EFE00224FF40051434800F048FE7EE063
:10106C0000228021404800F042FE00224FF48071A3
:10107C003D4800F03CFE00224FF400713A4800F06D
:10108C0036FE01224FF48061374800F030FE012219
:10109C004FF40061344800F02AFE01224FF48051D5
:1010AC00314800F024FE01224FF400512E4800F08C
:1010BC001EFE54E0002280212B4800F018FE002276
:1010CC004FF48071284800F012FE00224FF400719A
:1010DC00254800F00CFE00224FF48061224800F0FD
:1010EC0006FE00224FF400611F4800F000FE0022B3
:1010FC004FF480511C4800F0FAFD00224FF40051CF
:10110C00194800F0F4FD2AE000228021164800F076
:10111C00EEFD00224FF48071134800F0E8FD002230
:10112C004FF40071104800F0E2FD00224FF4806192
:10113C000D4800F0DCFD01224FF400610A4800F07C
:10114C00D6FD00224FF48051074800F0D0FD00225C
:10115C004FF40051044800F0CAFD00E000BF00BF8E
:10116C000837BD4680BD00BF000C014080B485B07F
:10117C0000AFF860B9607A603B60084AFB681360A6
:10118C00064ABB685360054A7B689360034A3B6818
:10119C00D36000BF1437BD4680BC7047A40000204C
:1011AC0080B582B000AF78607B68002B03D07B6881
:1011BC00012B17D02DE000224FF48041174800F08E
:1011CC0096FD01224FF40041144800F090FD144BA1
:1011DC001B681846FFF76EFC114B5B681846FFF74F
:1011EC00F9FD16E001224FF480410C4800F07FFD20
:1011FC0000224FF40041094800F079FD084B9B6830
:10120C001846FFF757FC064BDB681846FFF7E2FD64
:10121C0000BF00BF0837BD4680BD00BF000C0140B9
:10122C00A400002080B582B000AF00F05DFA00F0A1
:10123C002BF800F0B1F800F063F8104801F0C0F999
:10124C000F4B00221A6000237B600A2000F018F973
:10125C000C4B1B68012B0ED17868FFF7A1FF7B6844
:10126C0001337B607B68022B01D100237B604FF440
:10127C00FA7000F005F9FFF769F8E9E7B40000200F
:10128C00A00000200001002080B590B000AF07F155
:10129C00180328220021184601F04AFD3B1D0022AC
:1012AC001A605A609A60DA601A610223BB610123EA
:1012BC00BB621023FB6200237B6307F11803184603
:1012CC0000F046FD0346002B01D000F0D3F80F23AD
:1012DC007B600023BB600023FB6000233B61002389
:1012EC007B613B1D0021184600F0B4FF0346002B28
:1012FC0001D000F0BFF800BF4037BD4680BD0000F4
:10130C0080B586B000AF07F1080300221A605A605E
:10131C009A60DA603B4600221A605A601D4B4FF00F
:10132C0080421A601B4B41F63F725A60194B0022E7
:10133C009A60184B0922DA60164B00221A61154B81
:10134C0000229A61134801F0EBF80346002B01D000
:10135C0000F090F84FF48053BB6007F10803194676
:10136C000C4801F081FA0346002B01D000F082F802
:10137C0000233B6000237B603B461946054801F087
:10138C0049FC0346002B01D000F074F800BF18375D
:10139C00BD4680BDB400002080B586B000AF07F11B
:1013AC00080300221A605A609A60DA60284B9B6925
:1013BC00274A43F004039361254B9B6903F0040314
:1013CC007B607B68224B9B69214A43F00803936145
:1013DC001F4B9B6903F008033B603B6800224FF4F2
:1013EC007C711C4800F083FC00224FF6FF711A48F8
:1013FC0000F07DFC0E23BB600023FB6001233B61EE
:10140C0007F108031946134800F0DEFA4FF47C7319
:10141C00BB600123FB6000233B6102237B6107F16E
:10142C00080319460B4800F0CFFA4FF6FF73BB6068
:10143C000123FB6000233B6102237B6107F108035E
:10144C001946054800F0C0FA00BF1837BD4680BDEC
:10145C000010024000080140000C014080B582B031
:10146C0000AF786000F05AF8FEF7C4FE00BF0837F2
:10147C00BD4680BD80B400AF72B600BFFEE7000071
:10148C0080B483B000AF7860074B1B687A6892FB1E
:10149C00F3F3064A1360064B00221A6000BF0C37A8
:1014AC00BD4680BC704700BF48000020FC000020F7
:1014BC000001002080B483B000AF7860074B1B683C
:1014CC007A6892FBF3F3064A1360064B00221A600B
:1014DC0000BF0C37BD4680BC704700BF48000020E1
:1014EC00040100200801002080B483B000AF7860B4
:1014FC00074B1B687A6892FBF3F3064A1360064BA2
:10150C0000221A6000BF0C37BD4680BC704700BF7C
:10151C00480000200C0100201001002080B400AF16
:10152C00194B1B68002B0BDD174B1B68013B164A34
:10153C001360154B1B68002B02D1144B01221A604F
:10154C00134B1B68002B0BDD114B1B68013B104A26
:10155C0013600F4B1B68002B02D10E4B01221A603B
:10156C000D4B1B68002B0BDD0B4B1B68013B0A4A18
:10157C001360094B1B68002B02D1084B01221A6027
:10158C0000BFBD4680BC7047FC000020000100205D
:10159C0004010020080100200C0100201001002093
:1015AC0080B483B000AF0E4B9B690D4A43F001032E
:1015BC0093610B4B9B6903F001037B607B68084BC9
:1015CC00DB69074A43F08053D361054BDB6903F0B9
:1015DC0080533B603B6800BF0C37BD4680BC7047F6
:1015EC000010024080B584B000AF78607B681B6847
:1015FC00B3F1804F13D10C4BDB690B4A43F0010361
:10160C00D361094BDB6903F00103FB60FB6800222B
:10161C0000211C2000F0A1F91C2000F0BAF900BF39
:10162C001037BD4680BD00BF0010024080B400AF33
:10163C00FEE780B400AFFEE780B400AFFEE780B4F5
:10164C0000AFFEE780B400AFFEE780B400AF00BF90
:10165C00BD4680BC704780B400AF00BFBD4680BCA7
:10166C00704780B400AF00BFBD4680BC704780B5EA
:10167C0000AF00F07FF800BF80BD000080B500AF68
:10168C00024800F0E9FF00BF80BD00BFB40000209D
:10169C0080B400AF00BFBD4680BC70470C480D49FC
:1016AC000D4A002302E0D458C4500433C4188C42B1
:1016BC00F9D30A4A0A4C002301E013600432A24217
:1016CC00FBD3FFF7E5FF01F00FFBFFF7ABFD704716
:1016DC0000000020580000208C2D0008580000202D
:1016EC0018010020FEE7000080B500AF084B1B6816
:1016FC00074A43F010031360032000F023F90F2076
:10170C0000F008F8FFF74CFF0023184680BD00BF1F
:10171C000020024080B582B000AF7860124B1A688E
:10172C00124B1B7819464FF47A73B3FBF1F3B2FBEF
:10173C00F3F3184600F03BF90346002B01D00123CC
:10174C000EE07B680F2B0AD8002279684FF0FF302F
:10175C0000F003F9064A7B681360002300E00123C4
:10176C0018460837BD4680BD4C00002054000020B0
:10177C005000002080B400AF054B1B781A46054B77
:10178C001B681344034A136000BFBD4680BC7047FE
:10179C00540000201401002080B400AF024B1B68E1
:1017AC001846BD4680BC70471401002080B485B03B
:1017BC0000AF78607B6803F00703FB600C4BDB68C1
:1017CC00BB60BA684FF6FF031340BB60FB681A029C
:1017DC00BB68134343F0BF6343F40033BB60044A5C
:1017EC00BB68D36000BF1437BD4680BC704700BFD8
:1017FC0000ED00E080B400AF044BDB681B0A03F083
:10180C0007031846BD4680BC704700BF00ED00E0E2
:10181C0080B483B000AF0346FB7197F90730002BFF
:10182C000BDBFB7903F01F02064997F907305B09C4
:10183C00012000FA02F241F8232000BF0C37BD460C
:10184C0080BC704700E100E080B483B000AF034679
:10185C003960FB7197F90730002B0ADB3B68DAB271
:10186C000C4997F907301201D2B20B4483F80023CC
:10187C000AE03B68DAB20849FB7903F00F03043B3A
:10188C001201D2B20B441A7600BF0C37BD4680BC95
:10189C00704700BF00E100E000ED00E080B489B0CB
:1018AC0000AFF860B9607A60FB6803F00703FB6176
:1018BC00FB69C3F10703042B28BF0423BB61FB693D
:1018CC000433062B02D9FB69033B00E000237B6148
:1018DC004FF0FF32BB6902FA03F3DA43BB681A40DC
:1018EC007B699A404FF0FF317B6901FA03F3D943CE
:1018FC007B680B40134318462437BD4680BC7047A9
:10190C0080B582B000AF78607B68013BB3F1807F1B
:10191C0001D301230FE00A4A7B68013B53600F217E
:10192C004FF0FF30FFF790FF054B00229A60044BFD
:10193C0007221A60002318460837BD4680BD00BF39
:10194C0010E000E080B582B000AF78607868FFF7F7
:10195C002DFF00BF0837BD4680BD80B586B000AFF7
:10196C000346B9607A60FB7300237B61FFF742FF8B
:10197C0078617A68B9687869FFF790FF024697F941
:10198C000F3011461846FFF75FFF00BF1837BD46F2
:10199C0080BD80B582B000AF0346FB7197F907306C
:1019AC001846FFF735FF00BF0837BD4680BD80B530
:1019BC0082B000AF78607868FFF7A2FF0346184644
:1019CC000837BD4680BD000080B48BB000AF786096
:1019DC00396000237B6200233B6261E101227B6A58
:1019EC0002FA03F3FB613B681B68FA691340BB61A5
:1019FC00BA69FB699A4240F050813B685B68974A30
:101A0C0093425ED0954A934275D8954A934258D0EA
:101A1C00934A93426FD8934A934252D0914A93423D
:101A2C0069D8914A93424CD08F4A934263D88F4ADB
:101A3C00934246D08D4A93425DD8122B2AD8122B52
:101A4C0059D801A252F823F0CF1A0008A91A00089D
:101A5C00BB1A0008FD1A0008031B0008031B000832
:101A6C00031B0008031B0008031B0008031B0008D2
:101A7C00031B0008031B0008031B0008031B0008C2
:101A8C00031B0008031B0008031B0008B11A000805
:101A9C00C51A0008764A934213D02CE03B68DB68E9
:101AAC003B6229E03B68DB6804333B6224E03B6823
:101ABC00DB6808333B621FE03B68DB680C333B623E
:101ACC001AE03B689B68002B02D104233B6213E0B5
:101ADC003B689B68012B05D108233B627B68FA6944
:101AEC001A6109E008233B627B68FA695A6103E0DA
:101AFC0000233B6200E000BFBB69FF2B01D87B6871
:101B0C0001E07B6804337B61BB69FF2B02D87B6AE5
:101B1C009B0002E07B6A083B9B003B617B691A6877
:101B2C000F213B6901FA03F3DB431A40396A3B6925
:101B3C0001FA03F31A437B691A603B685B6803F094
:101B4C008053002B00F0A9804A4B9B69494A43F013
:101B5C0001039361474B9B6903F00103BB60BB68B6
:101B6C00454A7B6A9B08023352F82330FB607B6A40
:101B7C0003F003039B000F2202FA03F3DB43FA6822
:101B8C001340FB607B683D4A93420DD07B683C4A16
:101B9C00934207D07B683B4A934201D1022304E075
:101BAC00032302E0012300E000237A6A02F003021F
:101BBC0092009340FA681343FB602F497B6A9B08A1
:101BCC000233FA6841F823203B685B6803F48033E6
:101BDC00002B06D02C4B1A682B49BB6913430B60A6
:101BEC0006E0294B1A68BB69DB43274913400B609D
:101BFC003B685B6803F40033002B06D0224B5A6819
:101C0C002149BB6913434B6006E01F4B5A68BB6903
:101C1C00DB431D4913404B603B685B6803F4801346
:101C2C00002B06D0184B9A681749BB6913438B607D
:101C3C0006E0154B9A68BB69DB43134913408B6074
:101C4C003B685B6803F40013002B1FD00E4BDA6863
:101C5C000D49BB691343CB601FE000BF000032107D
:101C6C0000003110000022100000211000001210A2
:101C7C00000011100010024000000140000801405B
:101C8C00000C014000100140000401400B4BDA68CD
:101C9C00BB69DB4309491340CB607B6A01337B6230
:101CAC003B681A687B6A22FA03F3002B7FF496AE2A
:101CBC0000BF00BF2C37BD4680BC704700040140FC
:101CCC0080B485B000AF78600B467B807B689A68E7
:101CDC007B881340002B02D00123FB7301E000230F
:101CEC00FB73FB7B18461437BD4680BC704780B431
:101CFC0083B000AF78600B467B8013467B707B789B
:101D0C00002B03D07A887B681A6103E07B881A0465
:101D1C007B681A6100BF0C37BD4680BC704780B42D
:101D2C0085B000AF78600B467B807B68DB68FB601E
:101D3C007A88FB6813401A04FB68D9437B880B40F4
:101D4C001A437B681A6100BF1437BD4680BC7047CC
:101D5C0080B586B000AF78607B68002B01D1012381
:101D6C0072E27B681B6803F00103002B00F0878094
:101D7C00924B5B6803F00C03042B0CD08F4B5B680D
:101D8C0003F00C03082B12D18C4B5B6803F48033EB
:101D9C00B3F5803F0BD1894B1B6803F40033002B48
:101DAC006CD07B685B68002B68D101234CE27B68AC
:101DBC005B68B3F5803F06D1804B1B687F4A43F4C8
:101DCC00803313602EE07B685B68002B0CD17B4B5F
:101DDC001B687A4A23F480331360784B1B68774A6C
:101DEC0023F4802313601DE07B685B68B3F5A02FA0
:101DFC000CD1724B1B68714A43F4802313606F4BF8
:101E0C001B686E4A43F4803313600BE06B4B1B680A
:101E1C006A4A23F480331360684B1B68674A23F4C7
:101E2C00802313607B685B68002B13D0FFF7B4FC36
:101E3C00386108E0FFF7B0FC02463B69D31A642B0B
:101E4C0001D9032300E25D4B1B6803F40033002B24
:101E5C00F0D014E0FFF7A0FC386108E0FFF79CFC21
:101E6C0002463B69D31A642B01D90323ECE1534B93
:101E7C001B6803F40033002BF0D100E000BF7B683B
:101E8C001B6803F00203002B63D04C4B5B6803F020
:101E9C000C03002B0BD0494B5B6803F00C03082B95
:101EAC001CD1464B5B6803F48033002B16D1434B9B
:101EBC001B6803F00203002B05D07B681B69012B08
:101ECC0001D00123C0E13D4B1B6823F0F8027B6875
:101EDC005B69DB00394913430B603AE07B681B6993
:101EEC00002B20D0364B01221A60FFF755FC3861CD
:101EFC0008E0FFF751FC02463B69D31A022B01D9CB
:101F0C000323A1E12D4B1B6803F00203002BF0D03F
:101F1C002A4B1B6823F0F8027B685B69DB002749BE
:101F2C0013430B6015E0264B00221A60FFF734FCBC
:101F3C00386108E0FFF730FC02463B69D31A022BEC
:101F4C0001D9032380E11D4B1B6803F00203002B16
:101F5C00F0D17B681B6803F00803002B3AD07B6838
:101F6C009B69002B19D0174B01221A60FFF714FC48
:101F7C00386108E0FFF710FC02463B69D31A022BCC
:101F8C0001D9032360E10D4B5B6A03F00203002BC4
:101F9C00F0D0012000F0A6FA1CE00A4B00221A60D7
:101FAC00FFF7FAFB38610FE0FFF7F6FB02463B69DF
:101FBC00D31A022B08D9032346E100BF00100240BC
:101FCC000000424280044242924B5B6A03F00203DF
:101FDC00002BE9D17B681B6803F00403002B00F095
:101FEC00A6800023FB758B4BDB6903F08053002B21
:101FFC000DD1884BDB69874A43F08053D361854B05
:10200C00DB6903F08053BB60BB680123FB75824B1B
:10201C001B6803F48073002B18D17F4B1B687E4A1E
:10202C0043F480731360FFF7B7FB386108E0FFF7E8
:10203C00B3FB02463B69D31A642B01D9032303E19A
:10204C00754B1B6803F48073002BF0D07B68DB6846
:10205C00012B06D16F4B1B6A6E4A43F001031362CE
:10206C002DE07B68DB68002B0CD16A4B1B6A694A3C
:10207C0023F001031362674B1B6A664A23F00403C7
:10208C0013621CE07B68DB68052B0CD1614B1B6A6F
:10209C00604A43F0040313625E4B1B6A5D4A43F0D3
:1020AC00010313620BE05B4B1B6A5A4A23F00103DA
:1020BC001362584B1B6A574A23F0040313627B6864
:1020CC00DB68002B15D0FFF767FB38610AE0FFF7E0
:1020DC0063FB02463B69D31A41F28832934201D921
:1020EC000323B1E04B4B1B6A03F00203002BEED031
:1020FC0014E0FFF751FB38610AE0FFF74DFB024695
:10210C003B69D31A41F28832934201D903239BE0F5
:10211C00404B1B6A03F00203002BEED1FB7D012B1D
:10212C0005D13C4BDB693B4A23F08053D3617B6880
:10213C00DB69002B00F08780364B5B6803F00C03E7
:10214C00082B61D07B68DB69022B46D1334B002214
:10215C001A60FFF721FB386108E0FFF71DFB024610
:10216C003B69D31A022B01D903236DE0294B1B6861
:10217C0003F00073002BF0D17B681B6AB3F5803F32
:10218C0008D1244B5B6823F400327B689B6821499F
:10219C0013434B601F4B5B6823F474127B68196A02
:1021AC007B685B6A0B431B4913434B601B4B01223F
:1021BC001A60FFF7F1FA386108E0FFF7EDFA024612
:1021CC003B69D31A022B01D903233DE0114B1B6849
:1021DC0003F00073002BF0D035E0104B00221A6096
:1021EC00FFF7DAFA386108E0FFF7D6FA02463B69E6
:1021FC00D31A022B01D9032326E0064B1B6803F0EC
:10220C000073002BF0D11EE07B68DB69012B07D13A
:10221C00012319E0001002400070004060004242AF
:10222C000B4B5B68FB60FB6803F480327B681B6ABA
:10223C009A4206D1FB6803F470127B685B6A9A427F
:10224C0001D0012300E0002318461837BD4680BD9D
:10225C000010024080B584B000AF786039607B68B4
:10226C00002B01D10123D0E06A4B1B6803F007035C
:10227C003A689A4210D9674B1B6823F007026549EC
:10228C003B6813430B60634B1B6803F007033A680E
:10229C009A4201D00123B8E07B681B6803F002036B
:1022AC00002B20D07B681B6803F00403002B05D0A7
:1022BC00594B5B68584A43F4E06353607B681B6876
:1022CC0003F00803002B05D0534B5B68524A43F4D0
:1022DC0060535360504B5B6823F0F0027B689B6843
:1022EC004D4913434B607B681B6803F00103002BC3
:1022FC0040D07B685B68012B07D1474B1B6803F40C
:10230C000033002B15D101237FE07B685B68022B27
:10231C0007D1414B1B6803F00073002B09D101233B
:10232C0073E03D4B1B6803F00203002B01D101232A
:10233C006BE0394B5B6823F003027B685B683649C2
:10234C0013434B60FFF728FAF8600AE0FFF724FA12
:10235C000246FB68D31A41F28832934201D9032317
:10236C0053E02D4B5B6803F00C027B685B689B00B1
:10237C009A42EBD1274B1B6803F007033A689A4249
:10238C0010D2244B1B6823F0070222493B681343ED
:10239C000B60204B1B6803F007033A689A4201D08C
:1023AC00012332E07B681B6803F00403002B08D088
:1023BC00194B5B6823F4E0627B68DB6816491343B6
:1023CC004B607B681B6803F00803002B09D0124B91
:1023DC005B6823F460527B681B69DB000E49134376
:1023EC004B6000F021F802460B4B5B681B0903F0B5
:1023FC000F030A49CB5C22FA03F3094A1360094B19
:10240C001B681846FFF786F9002318461037BD469F
:10241C0080BD00BF0020024000100240742D000857
:10242C004C0000205000002090B48AB000AF294B23
:10243C003C1D0FCB84E80F0040F201233B800023AE
:10244C00FB610023BB6100237B6200237B610023C3
:10245C003B62214B5B68FB61FB6903F00C03042BB3
:10246C0002D0082B03D02BE01C4B3B622BE0FB690A
:10247C009B0C03F00F0328333B4413F8243C7B6183
:10248C00FB6903F48033002B12D0134B5B685B0C9D
:10249C0003F0010328333B4413F8283CBB617B69F0
:1024AC000E4A03FB02F2BB69B2FBF3F37B6204E05E
:1024BC007B690B4A02FB03F37B627B6A3B6202E0A3
:1024CC00064B3B6200BF3B6A18462837BD4690BCA2
:1024DC00704700BF642D00080010024000127A0003
:1024EC0000093D0080B485B000AF78600A4B1B68D2
:1024FC000A4AA2FB03235B0A7A6802FB03F3FB6024
:10250C0000BFFB685A1EFA60002BF9D100BF00BF58
:10251C001437BD4680BC70474C000020D34D621070
:10252C0080B582B000AF78607B68002B01D10123AD
:10253C0041E07B6893F83D30DBB2002B06D17B6821
:10254C00002283F83C207868FFF74CF87B68022265
:10255C0083F83D207B681A687B6804331946104663
:10256C0000F06AFA7B68012283F846207B6801221E
:10257C0083F83E207B68012283F83F207B68012290
:10258C0083F840207B68012283F841207B6801227C
:10259C0083F842207B68012283F843207B68012268
:1025AC0083F844207B68012283F845207B68012254
:1025BC0083F83D20002318460837BD4680BD000037
:1025CC0080B485B000AF78607B6893F83D30DBB2A7
:1025DC00012B01D0012335E07B68022283F83D20DA
:1025EC007B681B68DA687B681B6842F00102DA6062
:1025FC007B681B68164A934209D07B681B68B3F151
:10260C00804F04D07B681B68124A934211D17B68BF
:10261C001B689B6803F00703FB60FB68062B10D05C
:10262C007B681B681A687B681B6842F001021A60A1
:10263C0007E07B681B681A687B681B6842F0010224
:10264C001A60002318461437BD4680BC704700BF83
:10265C00002C01400004004080B582B000AF7860CF
:10266C007B681B681B6903F00203022B22D17B6879
:10267C001B68DB6803F00203022B1BD17B681B6811
:10268C006FF002021A617B6801221A777B681B6863
:10269C009B6903F00303002B03D0786800F0B1F9B9
:1026AC0005E0786800F0A4F9786800F0B3F97B686D
:1026BC0000221A777B681B681B6903F00403042B48
:1026CC0022D17B681B68DB6803F00403042B1BD14D
:1026DC007B681B686FF004021A617B6802221A7710
:1026EC007B681B689B6903F44073002B03D07868EC
:1026FC0000F087F905E0786800F07AF9786800F066
:10270C0089F97B6800221A777B681B681B6903F0C8
:10271C000803082B22D17B681B68DB6803F00803D5
:10272C00082B1BD17B681B686FF008021A617B6851
:10273C0004221A777B681B68DB6903F00303002B08
:10274C0003D0786800F05DF905E0786800F050F986
:10275C00786800F05FF97B6800221A777B681B6849
:10276C001B6903F01003102B22D17B681B68DB68FC
:10277C0003F01003102B1BD17B681B686FF0100249
:10278C001A617B6808221A777B681B68DB6903F483
:10279C004073002B03D0786800F033F905E07868BB
:1027AC0000F026F9786800F035F97B6800221A777A
:1027BC007B681B681B6903F00103012B0ED17B683E
:1027CC001B68DB6803F00103012B07D17B681B68D6
:1027DC006FF001021A617868FEF740FE7B681B6897
:1027EC001B6903F08003802B0ED17B681B68DB68B0
:1027FC0003F08003802B07D17B681B686FF080028D
:10280C001A61786800F067FA7B681B681B6903F033
:10281C004003402B0ED17B681B68DB6803F0400340
:10282C00402B07D17B681B686FF040021A617868F7
:10283C0000F0F9F87B681B681B6903F02003202B60
:10284C000ED17B681B68DB6803F02003202B07D1BB
:10285C007B681B686FF020021A61786800F032FA0E
:10286C0000BF0837BD4680BD80B584B000AF78602E
:10287C0039607B6893F83C30012B01D10223B3E023
:10288C007B68012283F83C207B68022283F83D2080
:10289C007B681B689B68FB60FB6823F07703FB601D
:1028AC00FB6823F47F43FB607B681B68FA689A60C3
:1028BC003B681B68B3F5005F3ED0B3F5005F00F2D8
:1028CC008780B3F5805F00F08580B3F5805F7FD89B
:1028DC00702B1AD0702B7BD8602B50D0602B77D8F4
:1028EC00502B3CD0502B73D8402B58D0402B6FD84A
:1028FC00302B64D0302B6BD8202B60D0202B67D89A
:10290C00002B5CD0102B5AD062E07B6818683B68B7
:10291C0099683B685A683B68DB6800F05CF97B6837
:10292C001B689B68FB60FB6843F07703FB607B686C
:10293C001B68FA689A604EE07B6818683B68996877
:10294C003B685A683B68DB6800F045F97B681B689C
:10295C009A687B681B6842F480429A603BE07B6813
:10296C0018683B6859683B68DB681A4600F0BCF88D
:10297C007B681B685021184600F013F92BE07B682C
:10298C0018683B6859683B68DB681A4600F0DAF84F
:10299C007B681B686021184600F003F91BE07B681C
:1029AC0018683B6859683B68DB681A4600F09CF86D
:1029BC007B681B684021184600F0F3F80BE07B683D
:1029CC001A683B681B681946104600F0EAF802E0EA
:1029DC0000BF00E000BF7B68012283F83D207B68CC
:1029EC00002283F83C20002318461037BD4680BDDA
:1029FC0080B483B000AF786000BF0C37BD4680BC9C
:102A0C00704780B483B000AF786000BF0C37BD4610
:102A1C0080BC704780B483B000AF786000BF0C37C7
:102A2C00BD4680BC704780B483B000AF786000BFF7
:102A3C000C37BD4680BC704780B485B000AF786061
:102A4C0039607B681B68FB607B68254A934207D022
:102A5C007B68B3F1804F03D07B68224A934208D144
:102A6C00FB6823F07003FB603B685B68FA681343F8
:102A7C00FB607B681A4A934207D07B68B3F1804FA6
:102A8C0003D07B68174A934208D1FB6823F4407348
:102A9C00FB603B68DB68FA681343FB60FB6823F060
:102AAC0080023B685B691343FB607B68FA681A60C1
:102ABC003B689A687B68DA623B681A687B689A6242
:102ACC007B68074A934203D13B681A697B681A6397
:102ADC007B6801225A6100BF1437BD4680BC704729
:102AEC00002C01400004004080B487B000AFF860B7
:102AFC00B9607A60FB681B6A7B61FB681B6A23F018
:102B0C000102FB681A62FB689B693B613B6923F01D
:102B1C00F0033B617B681B013A6913433B617B69A2
:102B2C0023F00A037B617A69BB6813437B61FB6802
:102B3C003A699A61FB687A691A6200BF1C37BD4614
:102B4C0080BC704780B487B000AFF860B9607A6021
:102B5C00FB681B6A23F01002FB681A62FB689B6916
:102B6C007B61FB681B6A3B617B6923F470437B616F
:102B7C007B681B037A6913437B613B6923F0A003D9
:102B8C003B61BB681B013A6913433B61FB687A6983
:102B9C009A61FB683A691A6200BF1C37BD4680BC5B
:102BAC00704780B485B000AF786039607B689B68F3
:102BBC00FB60FB6823F07003FB603A68FB6813430F
:102BCC0043F00703FB607B68FA689A6000BF143718
:102BDC00BD4680BC704780B487B000AFF860B96068
:102BEC007A603B60FB689B687B617B6923F47F4365
:102BFC007B613B681A027B681A43BB6813437A6992
:102C0C0013437B61FB687A699A6000BF1C37BD4631
:102C1C0080BC704780B485B000AF786039607B6849
:102C2C0093F83C30012B01D1022341E07B68012257
:102C3C0083F83C207B68022283F83D207B681B686C
:102C4C005B68FB607B681B689B68BB60FB6823F060
:102C5C007003FB603B681B68FA681343FB607B687E
:102C6C001B68FA685A607B681B68144A934209D047
:102C7C007B681B68B3F1804F04D07B681B68104ADB
:102C8C0093420CD1BB6823F08003BB603B685B684C
:102C9C00BA681343BB607B681B68BA689A607B6830
:102CAC00012283F83D207B68002283F83C2000231E
:102CBC0018461437BD4680BC704700BF002C01403D
:102CCC000004004080B483B000AF786000BF0C37C4
:102CDC00BD4680BC704780B483B000AF786000BF45
:102CEC000C37BD4680BC704770B500260C4D0D4CA2
:102CFC00641BA410A64209D100F022F800260A4D4C
:102D0C000A4C641BA410A64205D170BD55F8043BB7
:102D1C0098470136EEE755F8043B98470136F2E741
:102D2C00842D0008842D0008842D0008882D0008AF
:102D3C0003460244934200D1704703F8011BF9E7A4
:102D4C00F8B500BFF8BC08BC9E467047F8B500BF8C
:082D5C00F8BC08BC9E4670475C
:102D640002030405060708090A0B0C0D0E0F1010C8
:102D74000000000000000000010203040607080927
:042D84003101000811
:042D88000D01000831
:102D8C000100000001000000010000000100000033
:102D9C000100000001000000010000000100000023
:102DAC000100000001000000010000000100000013
:102DBC002C0100002C0100002C010000050000007B
:102DCC0003000000020000000A0000000024F400D0
:082DDC001000000001000000DE
:04000005080016A930
:00000001FF
